S0160000547261666669635F6C69676874732E7372656365
S11300000C942A000C9409020C9447000C944700A9
S11300100C9447000C9447000C9447000C94470040
S11300200C9447000C9447000C9447000C94470030
S11300300C9447000C9447000C9447000C94470020
S11300400C9447000C9447000C9447000C94470010
S11300500C94470011241FBECFE5D8E0DEBFCDBF0E
S113006010E0A0E6B0E0E2E5FAE002C005900D92EF
S1130070A236B107D9F720E0A2E6B0E001C01D9294
S1130080AB36B207E1F70E94A0020C9427050C944A
S1130090000060E081E40E947D0261E081E40E944E
S11300A07D0262E081E40E947D0260E082E40E94BD
S11300B07D0261E082E40E947D0262E082E40E94AB
S11300C07D0262E082E40E9486020E942E0462E0C5
S11300D084E40E947402789463EA70E081E00E94F0
S11300E0380464E274EF82E00E94380465EF70E043
S11300F083E00E94380482E00E947604089562E658
S113010070E081E00E94EC0480916200882369F031
S113011080916600882331F01092660081E080931C
S1130120610003C08F5F8093660062E670E082E046
S11301300E94EC04809162008823D9F080916500CC
S11301408930A0F0109265008091670090E00196DC
S113015083709078992324F401978C6F9F6F019694
S11301608093670081E08093600003C08F5F809379
S1130170650062E670E083E00E94EC048091620016
S1130180882361F080916400833028F01092640029
S11301901092690003C08F5F8093640080916A00AD
S11301A0882309F4D5C0F894809167008130A9F1BF
S11301B038F0823009F4A9C0833009F46AC0089584
S11301C080916000882309F423C160E082E40E94E6
S11301D08F0261E082E40E948F0262E082E40E9466
S11301E0860260E081E40E94860261E081E40E946C
S11301F08F0262E081E40E948F021092600081E02D
S11302000E94A50480916300882309F401C110921F
S1130210630010926A0078940895809160008823A6
S113022041F160E081E40E948F0261E081E40E9478
S1130230860262E081E40E948F0260E082E40E9410
S11302408F0261E082E40E94860262E082E40E94FE
S1130250860210926100109260001092660081E0A4
S11302600E94D40481E00E94760481E080936300BC
S1130270089580916100882309F4CAC061E081E493
S11302800E94980261E082E40E9498021092610048
S1130290089580916000882341F160E081E40E9428
S11302A08F0261E081E40E94860262E081E40E94A0
S11302B08F0260E082E40E94860261E082E40E9490
S11302C0860262E082E40E948F0210926100109222
S11302D060001092660081E00E94D40481E00E94D4
S11302E0760481E0809363000895809161008823FF
S11302F009F48EC061E081E40E94980261E082E426
S11303000E949802109261000895809160008823F1
S113031009F47EC060E081E40E948F0261E081E420
S11303200E948F0262E081E40E94860260E082E41F
S11303300E94860261E082E40E948F0262E082E40D
S11303400E948F021092600081E00E94A50408952B
S1130350809167008130F9F038F0823009F443C0AD
S1130360833009F055C017C080916000882309F4D8
S11303704FC060E081E40E94860261E081E40E9453
S11303808F0262E081E40E948F021092600081E09B
S11303900E94A5040895809160008823C9F060E05C
S11303A081E40E948F0261E081E40E94860262E09F
S11303B081E40E948F0210926100109260001092FA
S11303C0660081E00E94D40481E00E9476040895CE
S11303D0809161008823E1F061E081E40E94980249
S11303E010926100089580916000882389F060E094
S11303F081E40E948F0261E081E40E948F0262E046
S113040081E40E9486021092600081E00E94A504AB
S113041008951F920F920FB60F9211242F933F93BA
S11304204F935F936F937F938F939F93AF93BF93F8
S1130430EF93FF9380916800882339F180916900DC
S1130440882319F181E080936A00809167008150CC
S1130450833028F41092650082E00E94D4048091D5
S11304606700833019F481E08093670081E0809312
S11304706000109268001092690083E00E94A50455
S113048083E00E94D4041092640080916800882361
S113049071F08091690081110AC01092680083E0B4
S11304A00E94A50483E00E94D40410926400809109
S11304B06800811108C083E00E94760481E0809383
S11304C0680080936900FF91EF91BF91AF919F9174
S11304D08F917F916F915F914F913F912F910F90E9
S11304E00FBE0F901F901895982F862F40E0692F0C
S11304F00E94A502811181E00895982F862F41E082
S1130500692F0E94A502811181E00895982F862FFA
S113051041E0692F0E944103811182E00895982FE0
S1130520862F40E0692F0E944103811183E00895E2
S1130530982F862F692F0E94DD03811184E008958E
S11305400E9449000E947F00FDCF883008F091C0CE
S11305509FEB960F943008F08EC0423008F08DC0A7
S1130560623451F118F4613441F089C0633409F400
S113057042C0643409F45EC082C0413071F44AB3AD
S113058021E030E0B90102C0660F771F8A95E2F7D7
S1130590CB01842B8ABB80E008954AB321E030E08C
S11305A0B90102C0660F771F8A95E2F7CB018095E7
S11305B084238ABB80E00895413071F447B321E07D
S11305C030E0B90102C0660F771F8A95E2F7CB01CC
S11305D0842B87BB80E0089547B321E030E0B90164
S11305E002C0660F771F8A95E2F7CB0180958423BA
S11305F087BB80E00895413071F444B321E030E0DA
S1130600B90102C0660F771F8A95E2F7CB01842BEC
S113061084BB80E0089544B321E030E0B90102C016
S1130620660F771F8A95E2F7CB018095842384BBFC
S113063080E00895413071F441B321E030E0B90124
S113064002C0660F771F8A95E2F7CB01842B81BB2A
S113065080E0089541B321E030E0B90102C0660FA3
S1130660771F8A95E2F7CB018095842381BB80E0D4
S1130670089581E0089582E0089583E0089580E07C
S11306800895883008F091C09FEB960F943008F0DD
S11306908EC0423008F08DC0623451F118F46134D8
S11306A041F089C0633409F442C0643409F45EC083
S11306B082C0413071F44BB321E030E0B90102C093
S11306C0660F771F8A95E2F7CB01842B8BBB80E002
S11306D008954BB321E030E0B90102C0660F771FE3
S11306E08A95E2F7CB01809584238BBB80E0089543
S11306F0413071F448B321E030E0B90102C0660F23
S1130700771F8A95E2F7CB01842B88BB80E008959C
S113071048B321E030E0B90102C0660F771F8A9523
S1130720E2F7CB018095842388BB80E008954130B3
S113073071F445B321E030E0B90102C0660F771FC0
S11307408A95E2F7CB01842B85BB80E0089545B3FD
S113075021E030E0B90102C0660F771F8A95E2F705
S1130760CB018095842385BB80E00895413071F4EA
S113077042B321E030E0B90102C0660F771F8A95C9
S1130780E2F7CB01842B82BB80E0089542B321E0E1
S113079030E0B90102C0660F771F8A95E2F7CB01FA
S11307A08095842382BB80E0089581E0089582E0EF
S11307B0089584E0089580E00895883008F048C0E2
S11307C09FEB960F943008F045C06234B9F018F4EA
S11307D0613431F041C06334F9F0643459F13CC000
S11307E04BB321E030E0B90102C0660F771F8A9550
S11307F0E2F7CB0184278BBB80E0089548B321E066
S113080030E0B90102C0660F771F8A95E2F7CB0189
S1130810842788BB80E0089545B321E030E0B90126
S113082002C0660F771F8A95E2F7CB01842785BB48
S113083080E0089542B321E030E0B90102C0660FC0
S1130840771F8A95E2F7CB01842782BB80E0089565
S113085081E0089582E0089580E0089585B781607D
S113086085BF85B78D7F85BF8BB780648BBF0895A7
S11308709FEF980F9330A0F5813011F0833021F46D
S11308806F3F710509F070F5823071F08330F1F03B
S1130890813051F583B7886083BF83B78F7B83BF73
S11308A012BE6CBF80E008958FB58E7F8FBD8FB56B
S11308B08D7F8FBD8EB588608EBD8EB58F7E8EBDCB
S11308C01DBC1CBC7BBD6ABD80E0089585B58860F5
S11308D085BD85B58F7B85BD14BC63BD80E008955F
S11308E081E0089582E0089580E008959FEF980FD5
S11308F0933038F5823079F08330C1F0813019F5C6
S113090083B7846083BF83B78D7F83BF83B78160E0
S113091083BF80E008958EB58E7F8EBD8EB58260D4
S11309208EBD8EB58B7F8EBD80E0089585B58160C8
S113093085BD85B5826085BD85B5846085BD80E053
S1130940089581E0089580E008959FEF980F933013
S113095038F5823079F08330C1F0813019F583B7EE
S11309608B7F83BF83B78D7F83BF83B78E7F83BF26
S113097080E008958EB58E7F8EBD8EB58D7F8EBD41
S11309808EB58B7F8EBD80E0089585B58E7F85BD45
S113099085B58D7F85BD85B58B7F85BD80E0089548
S11309A081E0089580E008959FEF980F933080F4DC
S11309B0823039F0833049F0813061F412BE80E036
S11309C008951DBC1CBC80E0089514BC80E008950B
S11309D081E0089580E008959FEF980F933098F593
S11309E0823099F0833001F1813079F508B601FE47
S11309F008C088B7826088BF81E0FB01808380E003
S1130A000895FB01108280E0089508B604FE08C032
S1130A1088B7806188BF81E0FB01808380E008950E
S1130A20FB01108280E0089508B607FE08C088B76D
S1130A30806888BF81E0FB01808380E00895FB012A
S1130A40108280E0089581E0089580E00895F8948C
S1050A50FFCFD2
S1050A5201019C
S9030000FC
